:020000040000FA
:060000000A128A11E22F32
:100018000134003400340034831203139715171584
:100028001214921012158316031307110800F80012
:10003800F401F5017008F200F3017208F600730884
:10004800F700781C282829282F287608F407031891
:10005800F50A7708F50701300310F60DF70DFF3E96
:10006800031D30280310F80C7808031D3C283D2890
:1000780025287508F1007408F000080003108312A1
:100088000313660D670DE8006808EE006E08031D8F
:100098004E284F2858280030E7000030E60000308E
:1000A800E5000030E400BD286408E8006508E900C0
:1000B8006608EA006708EB001F300310EB0CEA0C37
:1000C800E90CE80CFF3E031D61286808EC006C0889
:1000D800ED00E617FF30E405FF30E505FF30E605E3
:1000E8000030E7059630EE02EE1F7B287C28962824
:1000F8006E08803A973E03188228832884284F2860
:1001080001300310E70CE60CE50CE40CFF3E031D80
:1001180085280130E8006808EE07031D9428952813
:100128008428AD2820306E02031C9B289C28A82810
:100138004F280130E8000310E40DE50DE60DE70D4A
:10014800E80B9F280130EE026E08031DAC28AD288D
:100158009D286D080319B128B228BD28E409E509CE
:10016800E609E709E40A0319E50A0319E60A031987
:10017800E70A080004308316031325020030031928
:1001880024020318C828C9284A29240883120313FB
:10019800A60083160313250883120313A700A801DA
:1001A800A90100300A128A11E8210A128A11831261
:1001B80003132908B7002808B6002708B500260841
:1001C800B4004430B3007F30B200C030B10000301A
:1001D800B0000A128A11A4220A128A118312031388
:1001E8003308D1003208D0003108CF003008CE00E3
:1001F8000A128A15AF270A128A11831203133308C9
:10020800CD003208CC003108CB003008CA000A12F1
:100218008A1181240A128A11831203134D08E700F8
:100228004C08E6004B08E5004A08E4000A128A1167
:1002380042200A128A1183120313650883160313D6
:10024800A50083120313640883160313A400831202
:10025800031397128316031324183329372983129B
:10026800031317163A29831203131712831603135D
:100278002508A7002408A6000310A70CA60C031045
:10028800A70CA60C260883120313950008008312F6
:100298000313A101F31F512952295F29F009F1091C
:1002A800F209F309F00A0319F10A0319F20A03190A
:1002B800F30AA101A10AF71F622963297229F40927
:1002C800F509F609F709F40A0319F50A0319F60AF4
:1002D8000319F70A0130F8007808A1060030A500D4
:1002E8000030A4000030A3000030A200730872049C
:1002F80071047004031981298229CF29A001A00A59
:1003080092290130F8000310F00DF10DF20DF30DF4
:10031800F80B87290130F8007808A007F31F952902
:10032800962985290130F8000310A20DA30DA40D0C
:10033800A50DF80B982973087702031DAD297208DB
:100348007602031DAD2971087502031DAD297008D9
:100358007402031CB029B129C0297008F40271087D
:10036800031C710FF5027208031C720FF602730862
:10037800031C730FF702221401300310F30CF20C64
:10038800F10CF00CFF3E031DC1290130A002031D32
:10039800CE29CF29962921080319D329D429DF2961
:1003A800A209A309A409A509A20A0319A30A031902
:1003B800A40A0319A50A2508F3002408F200230853
:1003C800F1002208F000080083120313AA002A088B
:1003D8000319EF29F029042AA91FF329F429042A6B
:1003E8002609AC002709AD002809AE002909AF008D
:1003F800AC0A0319AD0A0319AE0A0319AF0A0C2A8D
:100408002908AF002808AE002708AD002608AC0070
:100418002908280427042604031D132A142A1D2A40
:100428000030A9000030A8000030A7000030A60066
:10043800A32A9630F9007908AB002F2A0130F90079
:100448007908AB0701300310AF0CAE0CAD0CAC0C47
:10045800FF3E031D272AFE302F05031D342A352AA7
:10046800222A512A0130F9007908AB070130AC077C
:10047800003003180130AD07003003180130AE0713
:10048800003003180130AF0701300310AF0CAE0C79
:10049800AD0CAC0CFF3E031D492AFF302F05031D90
:1004A800562A572A362A632A0130AB020130F9004E
:1004B8000310AC0DAD0DAE0DAF0DF90B5C2AAE1BE4
:1004C800662A672A6D2A02302B0203186C2A6D2AC5
:1004D800582A2B18702A712A792AFF30AC05FF3068
:1004E800AD057F30AE05FF30AF050310AB0C2B0810
:1004F800F900FA01FB01FC0118300310F90DFA0D9F
:10050800FB0DFC0DFF3E031D812A7908AC047A0817
:10051800AD047B08AE047C08AF042A080319952AA9
:10052800962A9B2AA91F992A9A2A9B2AAF172F082D
:10053800A9002E08A8002D08A7002C08A60008006E
:100548008312031337088039B8003808C100370808
:10055800B8003807B9003908C800B61FB42AB52A48
:10056800B62A481448080319BA2ABB2ACB2A480ACB
:10057800031DBF2AC02AC82A0030B7000030B600C1
:100588000030B5000030B400B617B701D32A0030E8
:10059800B7000030B6000030B5000030B4003308B2
:1005A8008039B8003808C1063308B8003807B900E0
:1005B8003908C900B21FE12AE22AE32A4914490886
:1005C8000319E72AE82AF82A490A031DEC2AED2A22
:1005D800F52A0030B3000030B2000030B10000301E
:1005E800B000B217B301002B0030B3000030B200E6
:1005F8000030B1000030B000330832043104300458
:10060800031D072B082B212B0030B7000030B60044
:100618000030B5000030B4008030B6047F30B70435
:100628004108B8003808B7043708B3003608B200E4
:100638003508B1003408B000802C4808031D252B6C
:10064800262B2F2B0030B3000030B2000030B10051
:100658000030B000802C4808B800B9013908BB0048
:1006680049083802BA00031CBB033A087F3EC2009F
:100678003B080318013E003EC3003708C000360897
:10068800BF003508BE003408BD000030B700003098
:10069800B6000030B5000030B4000030C7000030AC
:1006A800C6000030C5000030C400C901A52B4908A8
:1006B80003195F2B602B802B0130B8000310BD0D90
:1006C800BE0DBF0DC00DB80B622B0130B800031072
:1006D800B40DB50DB60DB70DB80B6B2BC71F752B29
:1006E800762B772B34140130B8000310C40DC50DD8
:1006F800C60DC70DB80B792B33084002031D8E2B8E
:1007080032083F02031D8E2B31083E02031D8E2B3B
:1007180030083D02031C912B922BA12B4717300860
:10072800BD023108031C310FBE023208031C320F10
:10073800BF023308031C330FC0020130B800380869
:10074800C9071A304902031CAA2BAB2B5B2B4008A4
:100758003F043E043D040319B22BB32BD22B44149F
:10076800D22B0130B8000310B40DB50DB60DB70D7E
:10077800B80BB72BC71FC12BC22BC32B34140130A6
:10078800B8000310C40DC50DC60DC70DB80BC52B99
:10079800FF30C2070318C30AFF30C307B61FD52BA3
:1007A800D62BB52BC901C71FDA2BDB2BF72BFF3054
:1007B8004405B800FF304505B900FF304605BA00CA
:1007C8007F304705BB003B083A0439043804031955
:1007D800EE2BEF2BF22BC901C90AF72B341CF52B92
:1007E800F62BF72BEF2B49080319FB2BFC2B2D2C91
:1007F8000130B407003003180130B5070030031882
:100808000130B607003003180130B707371C0D2C2C
:100818000E2C2D2C3408B8003508B9003608BA005B
:100828003708BB000130BC003B0DBB0CBA0CB90C3F
:10083800B80CBC0B182C3B08B7003A08B6003908AE
:10084800B5003808B4000130C2070318C30A0030E5
:10085800C3074308803AFF0080307F02031D362C0F
:10086800FF304202031C392C3A2C482CFF308312EB
:100878000313C2000030C3000030B7000030B600D8
:100888000030B5000030B400831203134308803AE7
:10089800FF0080307F02031D532C013042020318F1
:1008A800562C572C642C83120313C201C301003049
:1008B800B7000030B6000030B5000030B400C10108
:1008C800831203134208B8003808C800481C6D2C6E
:1008D8006E2C702CB617742C7F30B8003808B6050B
:1008E8004808B8000310380CB9003908B7004108A7
:1008F800B8003808B704182B0800831203134D08F2
:100908008039D2005208D7004D08D2005207D300D0
:100918005308DD00CC1F912C922C932C5D145D089C
:100928000319972C982CA72C5D0A031D9C2C9D2C31
:10093800A52C0030CD000030CC000030CB000030BA
:10094800CA00CC17AF2C0030CD000030CC000030EE
:10095800CB000030CA0051088039D2005208D706AF
:100968005108D2005207D3005308DC00D01FBD2C19
:10097800BE2CBF2C5C145C080319C32CC42CD32CCC
:100988005C0A031DC82CC92CD12C0030D1000030C2
:10099800D0000030CF000030CE00D017DB2C003064
:1009A800D1000030D0000030CF000030CE005C080D
:1009B8000319DF2CE02CE52C5D08031DE42CE52C45
:1009C800EE2C0030CD000030CC000030CB000030E1
:1009D800CA00E12F4A08D2005208F00050080A1253
:1009E8008A111B200A128A11710883120313E3006B
:1009F8007008E2006208D200D301D401D50155087D
:100A0800DB005408DA005308D9005208D8006308FC
:100A1800D200D301D401D5015508E1005408E00003
:100A28005308DF005208DE004B08D2005208F000DD
:100A38004F080A128A111B200A128A1171088312A0
:100A48000313E3007008E2006208D200D301D40166
:100A5800D5015208D807530803110318013E03199A
:100A6800362DD907540803110318013E03193D2DEB
:100A7800DA07550803110318013E0319442DDB0753
:100A88006308D200D301D401D5015208DE07530808
:100A980003110318013E0319522DDF0754080311EF
:100AA8000318013E0319592DE007550803110318CF
:100AB800013E0319602DE1074C08D2005208F000EE
:100AC8004E080A128A111B200A128A117108831211
:100AD8000313E3007008E2006208D200D301D401D6
:100AE800D5015208D807530803110318013E03190A
:100AF8007E2DD907540803110318013E0319852DCB
:100B0800DA07550803110318013E03198C2DDB077A
:100B18006308D200D301D401D5015208DE07530877
:100B280003110318013E03199A2DDF075408031116
:100B38000318013E0319A12DE007550803110318F6
:100B4800013E0319A82DE1070830D2000310D80D83
:100B5800D90DDA0DDB0DD20BAA2D4B08D2005208A5
:100B6800F0004E080A128A111B200A128A11710815
:100B780083120313E3007008E2006208D2006308DE
:100B8800D300D401D5015208D8075308031103181C
:100B9800013E0319D02DD907540803110318013E4B
:100BA8000319D72DDA07550803110318013E031955
:100BB800DE2DDB074A08D2005208F0004F080A125F
:100BC8008A111B200A128A11710883120313E30089
:100BD8007008E2006208D2006308D300D401D5018E
:100BE8005208D807530803110318013E0319FD2DB5
:100BF800D907540803110318013E0319042EDA0714
:100C0800550803110318013E03190B2EDB070830A2
:100C1800D2000310D80DD90DDA0DDB0DD20B0D2E35
:100C28004A08D2005208F0004E080A128A111B2006
:100C38000A128A11710883120313E3007008E20094
:100C48006208D2006308D300D401D5015208D8073E
:100C5800530803110318013E0319332ED90754080A
:100C680003110318013E03193A2EDA075508031138
:100C78000318013E0319412EDB074B08D200520826
:100C8800F00050080A128A111B200A128A117108F2
:100C980083120313E3007008E2006208D2006308BD
:100CA800D300D401D5015208DE07530803110318F5
:100CB800013E0319602EDF07540803110318013E93
:100CC8000319672EE007550803110318013E03199D
:100CD8006E2EE1074C08D2005208F0004F080A12A5
:100CE8008A111B200A128A11710883120313E30068
:100CF8007008E2006208D2006308D300D401D5016D
:100D08005208DE07530803110318013E03198D2EFC
:100D1800DF07540803110318013E0319942EE00756
:100D2800550803110318013E03199B2EE1074C08CF
:100D3800D2005208F00050080A128A111B200A1229
:100D48008A11710883120313E3007008E200620835
:100D5800D2006308D300D401D50108300310D20DA6
:100D6800D30DD40DD50DFF3E031DB22E5208DE075C
:100D7800530803110318013E0319C32EDF07540853
:100D880003110318013E0319CA2EE0075508031181
:100D98000318013E0319D12EE1075808D20059085B
:100DA800D3005A08D4005B08D50018300310D50CBE
:100DB800D40CD30CD20CFF3E031DDA2E5208DE07EA
:100DC800530803110318013E0319EB2EDF075408DB
:100DD80003110318013E0319F22EE0075508031109
:100DE8000318013E0319F92EE1070830D200031059
:100DF800D80DD90DDA0DDB0DD20BFB2E5D085C0783
:100E0800D200D301D30D5208823EE20053080318E2
:100E1800013EFF3EE3002D2F0130D2000310DE0D0E
:100E2800DF0DE00DE10DD20B122FDB1F1C2F1D2F44
:100E38001E2F5E140130D2000310D80DD90DDA0D23
:100E4800DB0DD20B202FFF30E2070318E30AFF3037
:100E5800E307E01F302F312F102FDC01DB1F352F68
:100E6800362F522FFF305805D200FF305905D300D6
:100E7800FF305A05D4007F305B05D500550854046F
:100E8800530452040319492F4A2F4D2FDC01DC0A61
:100E9800522F5E1C502F512F522F4A2F5C080319D6
:100EA800562F572F882F0130DE07003003180130E6
:100EB800DF07003003180130E00700300318013065
:100EC800E107611C682F692F882F5E08D2005F0830
:100ED800D3006008D4006108D5000130D600550D54
:100EE800D50CD40CD30CD20CD60B732F5508E100BB
:100EF8005408E0005308DF005208DE000130E20722
:100F08000318E30A0030E3076308803AFF008030E3
:100F18007F02031D912FFF306202031C942F952F2F
:100F2800A02F7F3083120313E1008030E0000030EF
:100F3800DF000030DE00D52F831203136308803AE8
:100F4800FF0080307F02031DAB2F013062020318BF
:100F5800AE2FAF2FBB2F003083120313E1000030F8
:100F6800E0000030DF000030DE00D701D52F83120B
:100F780003136208D2005208DD00FF30DE05FF309F
:100F8800DF057F30E0050030E1055D1CCC2FCD2F5B
:100F9800CE2FE0175D08D2000310520CD30053087F
:100FA800E1005708D2005208E1046108CD0060084A
:100FB800CC005F08CB005E08CA0008008316031344
:100FC8000A128A110C200A128A11A0000A128A1128
:100FD8000D200A128A11A1000A128A110E200A1283
:100FE8008A11A2000A128A110F200A128A11A3007C
:080FF80083010A128A153E2F45
:101E7C00003083120313A9000030A8000330A70020
:101E8C00E830A6000A128A1561270A128A1500305A
:101E9C0083160313A4000230A5000A128A11BE2077
:101EAC000A128A150A128A1110200A128A155D2F3D
:101EBC000A128A110028831203132608F900270836
:101ECC00FA002808FB002908FC0002300310F90D69
:101EDC00FA0DFB0DFC0DFF3E031D6C2F02300310A1
:101EEC00F90DFA0DFB0DFC0DFF3E031D752F7C0843
:101EFC00F3007B08F2007A08F1007908F00000305A
:101F0C00F7003D30F6000930F5000030F4000A12FD
:101F1C008A114B210A128A1570088316031392003A
:101F2C0083120313290883160313A30083120313CC
:101F3C00280883160313A2008312031327088316A1
:101F4C000313A10083120313260883160313A000A6
:101F5C0008000030F7003D30F6000930F500003085
:101F6C00F40083160313200883120313B4008316A2
:101F7C000313210883120313B500831603132208DD
:101F8C0083120313B600831603132308831203135F
:101F9C00B70002300310B40DB50DB60DB70DFF3EF2
:101FAC00031DD02F3708F3003608F2003508F10076
:101FBC003408F0000A128A114B210A128A15730890
:101FCC0083120313A9007208A8007108A7007008F7
:101FDC00A60001300A128A11E8210A128A1583120E
:101FEC0003132908B3002808B2002708B1002608FB
:041FFC00B000080029
:04400E00F1ECFFFFD3
:00000001FF
